{
  "_format": "hh-sol-artifact-1",
  "contractName": "EvermoreFile",
  "sourceName": "contracts/EvermoreFile.sol",
  "abi": [
    {
      "inputs": [],
      "name": "getAllUsers",
      "outputs": [
        {
          "internalType": "address[]",
          "name": "",
          "type": "address[]"
        }
      ],
      "stateMutability": "view",
      "type": "function"
    },
    {
      "inputs": [
        {
          "internalType": "address",
          "name": "owner",
          "type": "address"
        }
      ],
      "name": "getFilesFor",
      "outputs": [
        {
          "components": [
            {
              "internalType": "string",
              "name": "path",
              "type": "string"
            },
            {
              "internalType": "string",
              "name": "hash",
              "type": "string"
            },
            {
              "internalType": "uint256",
              "name": "timestamp",
              "type": "uint256"
            },
            {
              "internalType": "string",
              "name": "hostname",
              "type": "string"
            },
            {
              "internalType": "uint256",
              "name": "file_size",
              "type": "uint256"
            }
          ],
          "internalType": "struct EvermoreFile.File[]",
          "name": "files",
          "type": "tuple[]"
        }
      ],
      "stateMutability": "view",
      "type": "function"
    },
    {
      "inputs": [],
      "name": "getUsers",
      "outputs": [
        {
          "internalType": "address[]",
          "name": "",
          "type": "address[]"
        }
      ],
      "stateMutability": "view",
      "type": "function"
    },
    {
      "inputs": [
        {
          "internalType": "address",
          "name": "user",
          "type": "address"
        }
      ],
      "name": "inUsers",
      "outputs": [
        {
          "internalType": "bool",
          "name": "found",
          "type": "bool"
        }
      ],
      "stateMutability": "view",
      "type": "function"
    },
    {
      "inputs": [
        {
          "internalType": "string",
          "name": "file_path",
          "type": "string"
        },
        {
          "internalType": "string",
          "name": "ipfsHash",
          "type": "string"
        },
        {
          "internalType": "uint256",
          "name": "timestamp",
          "type": "uint256"
        },
        {
          "internalType": "uint256",
          "name": "file_size",
          "type": "uint256"
        },
        {
          "internalType": "string",
          "name": "hostname",
          "type": "string"
        }
      ],
      "name": "set",
      "outputs": [],
      "stateMutability": "nonpayable",
      "type": "function"
    }
  ],
  "bytecode": "0x608060405234801561001057600080fd5b50610d6f806100206000396000f3fe608060405234801561001057600080fd5b50600436106100565760003560e01c8062ce8e3e1461005b5780634050aae4146100795780636444b6a4146100a9578063e2842d79146100c5578063f04953f0146100e3575b600080fd5b610063610113565b6040516100709190610b20565b60405180910390f35b610093600480360381019061008e919061084f565b6101a1565b6040516100a09190610b64565b60405180910390f35b6100c360048036038101906100be9190610878565b6101f7565b005b6100cd61031f565b6040516100da9190610b20565b60405180910390f35b6100fd60048036038101906100f8919061084f565b6103ad565b60405161010a9190610b42565b60405180910390f35b6060600180548060200260200160405190810160405280929190818152602001828054801561019757602002820191906000526020600020905b8160009054906101000a900473ffffffffffffffffffffffffffffffffffffffff1673ffffffffffffffffffffffffffffffffffffffff168152602001906001019080831161014d575b5050505050905090565b6000600260008373ffffffffffffffffffffffffffffffffffffffff1673ffffffffffffffffffffffffffffffffffffffff16815260200190815260200160002060009054906101000a900460ff169050919050565b6101ff610705565b6040518060a001604052808781526020018681526020018581526020018381526020018481525090506000803373ffffffffffffffffffffffffffffffffffffffff1673ffffffffffffffffffffffffffffffffffffffff16815260200190815260200160002060000181908060018154018082558091505060019003906000526020600020906005020160009091909190915060008201518160000190805190602001906102af929190610734565b5060208201518160010190805190602001906102cc929190610734565b506040820151816002015560608201518160030190805190602001906102f3929190610734565b50608082015181600401555050610309336101a1565b6103175761031633610647565b5b505050505050565b606060018054806020026020016040519081016040528092919081815260200182805480156103a357602002820191906000526020600020905b8160009054906101000a900473ffffffffffffffffffffffffffffffffffffffff1673ffffffffffffffffffffffffffffffffffffffff1681526020019060010190808311610359575b5050505050905090565b60606000808373ffffffffffffffffffffffffffffffffffffffff1673ffffffffffffffffffffffffffffffffffffffff168152602001908152602001600020600001805480602002602001604051908101604052809291908181526020016000905b8282101561063c57838290600052602060002090600502016040518060a0016040529081600082018054600181600116156101000203166002900480601f0160208091040260200160405190810160405280929190818152602001828054600181600116156101000203166002900480156104cc5780601f106104a1576101008083540402835291602001916104cc565b820191906000526020600020905b8154815290600101906020018083116104af57829003601f168201915b50505050508152602001600182018054600181600116156101000203166002900480601f01602080910402602001604051908101604052809291908181526020018280546001816001161561010002031660029004801561056e5780601f106105435761010080835404028352916020019161056e565b820191906000526020600020905b81548152906001019060200180831161055157829003601f168201915b5050505050815260200160028201548152602001600382018054600181600116156101000203166002900480601f01602080910402602001604051908101604052809291908181526020018280546001816001161561010002031660029004801561061a5780601f106105ef5761010080835404028352916020019161061a565b820191906000526020600020905b8154815290600101906020018083116105fd57829003601f168201915b5050505050815260200160048201548152505081526020019060010190610410565b505050509050919050565b6001819080600181540180825580915050600190039060005260206000200160009091909190916101000a81548173ffffffffffffffffffffffffffffffffffffffff021916908373ffffffffffffffffffffffffffffffffffffffff1602179055506001600260008373ffffffffffffffffffffffffffffffffffffffff1673ffffffffffffffffffffffffffffffffffffffff16815260200190815260200160002060006101000a81548160ff02191690831515021790555050565b6040518060a0016040528060608152602001606081526020016000815260200160608152602001600081525090565b828054600181600116156101000203166002900490600052602060002090601f016020900481019282601f1061077557805160ff19168380011785556107a3565b828001600101855582156107a3579182015b828111156107a2578251825591602001919060010190610787565b5b5090506107b091906107b4565b5090565b5b808211156107cd5760008160009055506001016107b5565b5090565b6000813590506107e081610d0b565b92915050565b600082601f8301126107f757600080fd5b813561080a61080582610bb0565b610b7f565b9150808252602083016020830185838301111561082657600080fd5b610831838284610cb6565b50505092915050565b60008135905061084981610d22565b92915050565b60006020828403121561086157600080fd5b600061086f848285016107d1565b91505092915050565b600080600080600060a0868803121561089057600080fd5b600086013567ffffffffffffffff8111156108aa57600080fd5b6108b6888289016107e6565b955050602086013567ffffffffffffffff8111156108d357600080fd5b6108df888289016107e6565b94505060406108f08882890161083a565b93505060606109018882890161083a565b925050608086013567ffffffffffffffff81111561091e57600080fd5b61092a888289016107e6565b9150509295509295909350565b60006109438383610963565b60208301905092915050565b600061095b8383610a8d565b905092915050565b61096c81610c6e565b82525050565b600061097d82610c00565b6109878185610c3b565b935061099283610be0565b8060005b838110156109c35781516109aa8882610937565b97506109b583610c21565b925050600181019050610996565b5085935050505092915050565b60006109db82610c0b565b6109e58185610c4c565b9350836020820285016109f785610bf0565b8060005b85811015610a335784840389528151610a14858261094f565b9450610a1f83610c2e565b925060208a019950506001810190506109fb565b50829750879550505050505092915050565b610a4e81610c80565b82525050565b6000610a5f82610c16565b610a698185610c5d565b9350610a79818560208601610cc5565b610a8281610cfa565b840191505092915050565b600060a0830160008301518482036000860152610aaa8282610a54565b91505060208301518482036020860152610ac48282610a54565b9150506040830151610ad96040860182610b11565b5060608301518482036060860152610af18282610a54565b9150506080830151610b066080860182610b11565b508091505092915050565b610b1a81610cac565b82525050565b60006020820190508181036000830152610b3a8184610972565b905092915050565b60006020820190508181036000830152610b5c81846109d0565b905092915050565b6000602082019050610b796000830184610a45565b92915050565b6000604051905081810181811067ffffffffffffffff82111715610ba657610ba5610cf8565b5b8060405250919050565b600067ffffffffffffffff821115610bcb57610bca610cf8565b5b601f19601f8301169050602081019050919050565b6000819050602082019050919050565b6000819050602082019050919050565b600081519050919050565b600081519050919050565b600081519050919050565b6000602082019050919050565b6000602082019050919050565b600082825260208201905092915050565b600082825260208201905092915050565b600082825260208201905092915050565b6000610c7982610c8c565b9050919050565b60008115159050919050565b600073ffffffffffffffffffffffffffffffffffffffff82169050919050565b6000819050919050565b82818337600083830152505050565b60005b83811015610ce3578082015181840152602081019050610cc8565b83811115610cf2576000848401525b50505050565bfe5b6000601f19601f8301169050919050565b610d1481610c6e565b8114610d1f57600080fd5b50565b610d2b81610cac565b8114610d3657600080fd5b5056fea2646970667358221220b04bb7ef0017eba5a19936763180f66d7b1698bf2c88b9738590b52d211cc40564736f6c63430007030033",
  "linkReferences": {},
  "deployedLinkReferences": {}
}