{
  "_format": "hh-sol-artifact-1",
  "contractName": "EvermoreFile",
  "sourceName": "contracts/EvermoreFile.sol",
  "abi": [
    {
      "inputs": [],
      "name": "getAllUsers",
      "outputs": [
        {
          "internalType": "address[]",
          "name": "",
          "type": "address[]"
        }
      ],
      "stateMutability": "view",
      "type": "function"
    },
    {
      "inputs": [
        {
          "internalType": "address",
          "name": "owner",
          "type": "address"
        }
      ],
      "name": "getFilesFor",
      "outputs": [
        {
          "components": [
            {
              "internalType": "string",
              "name": "path",
              "type": "string"
            },
            {
              "internalType": "string",
              "name": "hash",
              "type": "string"
            }
          ],
          "internalType": "struct EvermoreFile.File[]",
          "name": "files",
          "type": "tuple[]"
        }
      ],
      "stateMutability": "view",
      "type": "function"
    },
    {
      "inputs": [],
      "name": "getUsers",
      "outputs": [
        {
          "internalType": "address[]",
          "name": "",
          "type": "address[]"
        }
      ],
      "stateMutability": "view",
      "type": "function"
    },
    {
      "inputs": [
        {
          "internalType": "address",
          "name": "user",
          "type": "address"
        }
      ],
      "name": "inUsers",
      "outputs": [
        {
          "internalType": "bool",
          "name": "found",
          "type": "bool"
        }
      ],
      "stateMutability": "view",
      "type": "function"
    },
    {
      "inputs": [
        {
          "internalType": "string",
          "name": "file_path",
          "type": "string"
        },
        {
          "internalType": "string",
          "name": "ipfsHash",
          "type": "string"
        }
      ],
      "name": "set",
      "outputs": [],
      "stateMutability": "nonpayable",
      "type": "function"
    }
  ],
  "bytecode": "0x608060405234801561001057600080fd5b50610b86806100206000396000f3fe608060405234801561001057600080fd5b50600436106100565760003560e01c8062ce8e3e1461005b5780634050aae414610079578063e2842d79146100a9578063e942b516146100c7578063f04953f0146100e3575b600080fd5b610063610113565b6040516100709190610958565b60405180910390f35b610093600480360381019061008e9190610729565b6101a1565b6040516100a0919061099c565b60405180910390f35b6100b16101f7565b6040516100be9190610958565b60405180910390f35b6100e160048036038101906100dc9190610752565b610285565b005b6100fd60048036038101906100f89190610729565b610367565b60405161010a919061097a565b60405180910390f35b6060600180548060200260200160405190810160405280929190818152602001828054801561019757602002820191906000526020600020905b8160009054906101000a900473ffffffffffffffffffffffffffffffffffffffff1673ffffffffffffffffffffffffffffffffffffffff168152602001906001019080831161014d575b5050505050905090565b6000600260008373ffffffffffffffffffffffffffffffffffffffff1673ffffffffffffffffffffffffffffffffffffffff16815260200190815260200160002060009054906101000a900460ff169050919050565b6060600180548060200260200160405190810160405280929190818152602001828054801561027b57602002820191906000526020600020905b8160009054906101000a900473ffffffffffffffffffffffffffffffffffffffff1673ffffffffffffffffffffffffffffffffffffffff1681526020019060010190808311610231575b5050505050905090565b61028d610609565b60405180604001604052808481526020018381525090506000803373ffffffffffffffffffffffffffffffffffffffff1673ffffffffffffffffffffffffffffffffffffffff168152602001908152602001600020600001819080600181540180825580915050600190039060005260206000209060020201600090919091909150600082015181600001908051906020019061032b929190610623565b506020820151816001019080519060200190610348929190610623565b505050610354336101a1565b610362576103613361054b565b5b505050565b60606000808373ffffffffffffffffffffffffffffffffffffffff1673ffffffffffffffffffffffffffffffffffffffff168152602001908152602001600020600001805480602002602001604051908101604052809291908181526020016000905b828210156105405783829060005260206000209060020201604051806040016040529081600082018054600181600116156101000203166002900480601f0160208091040260200160405190810160405280929190818152602001828054600181600116156101000203166002900480156104865780601f1061045b57610100808354040283529160200191610486565b820191906000526020600020905b81548152906001019060200180831161046957829003601f168201915b50505050508152602001600182018054600181600116156101000203166002900480601f0160208091040260200160405190810160405280929190818152602001828054600181600116156101000203166002900480156105285780601f106104fd57610100808354040283529160200191610528565b820191906000526020600020905b81548152906001019060200180831161050b57829003601f168201915b505050505081525050815260200190600101906103ca565b505050509050919050565b6001819080600181540180825580915050600190039060005260206000200160009091909190916101000a81548173ffffffffffffffffffffffffffffffffffffffff021916908373ffffffffffffffffffffffffffffffffffffffff1602179055506001600260008373ffffffffffffffffffffffffffffffffffffffff1673ffffffffffffffffffffffffffffffffffffffff16815260200190815260200160002060006101000a81548160ff02191690831515021790555050565b604051806040016040528060608152602001606081525090565b828054600181600116156101000203166002900490600052602060002090601f016020900481019282601f1061066457805160ff1916838001178555610692565b82800160010185558215610692579182015b82811115610691578251825591602001919060010190610676565b5b50905061069f91906106a3565b5090565b5b808211156106bc5760008160009055506001016106a4565b5090565b6000813590506106cf81610b39565b92915050565b600082601f8301126106e657600080fd5b81356106f96106f4826109e8565b6109b7565b9150808252602083016020830185838301111561071557600080fd5b610720838284610ae4565b50505092915050565b60006020828403121561073b57600080fd5b6000610749848285016106c0565b91505092915050565b6000806040838503121561076557600080fd5b600083013567ffffffffffffffff81111561077f57600080fd5b61078b858286016106d5565b925050602083013567ffffffffffffffff8111156107a857600080fd5b6107b4858286016106d5565b9150509250929050565b60006107ca83836107ea565b60208301905092915050565b60006107e28383610914565b905092915050565b6107f381610aa6565b82525050565b600061080482610a38565b61080e8185610a73565b935061081983610a18565b8060005b8381101561084a57815161083188826107be565b975061083c83610a59565b92505060018101905061081d565b5085935050505092915050565b600061086282610a43565b61086c8185610a84565b93508360208202850161087e85610a28565b8060005b858110156108ba578484038952815161089b85826107d6565b94506108a683610a66565b925060208a01995050600181019050610882565b50829750879550505050505092915050565b6108d581610ab8565b82525050565b60006108e682610a4e565b6108f08185610a95565b9350610900818560208601610af3565b61090981610b28565b840191505092915050565b6000604083016000830151848203600086015261093182826108db565b9150506020830151848203602086015261094b82826108db565b9150508091505092915050565b6000602082019050818103600083015261097281846107f9565b905092915050565b600060208201905081810360008301526109948184610857565b905092915050565b60006020820190506109b160008301846108cc565b92915050565b6000604051905081810181811067ffffffffffffffff821117156109de576109dd610b26565b5b8060405250919050565b600067ffffffffffffffff821115610a0357610a02610b26565b5b601f19601f8301169050602081019050919050565b6000819050602082019050919050565b6000819050602082019050919050565b600081519050919050565b600081519050919050565b600081519050919050565b6000602082019050919050565b6000602082019050919050565b600082825260208201905092915050565b600082825260208201905092915050565b600082825260208201905092915050565b6000610ab182610ac4565b9050919050565b60008115159050919050565b600073ffffffffffffffffffffffffffffffffffffffff82169050919050565b82818337600083830152505050565b60005b83811015610b11578082015181840152602081019050610af6565b83811115610b20576000848401525b50505050565bfe5b6000601f19601f8301169050919050565b610b4281610aa6565b8114610b4d57600080fd5b5056fea2646970667358221220f5a88ab9bad20e87f102b25b3423e0eebe57d2281183e2f7cc50ecce96b49d2164736f6c63430007030033",
  "linkReferences": {},
  "deployedLinkReferences": {}
}