{
  "_format": "hh-sol-artifact-1",
  "contractName": "EvermoreFile",
  "sourceName": "contracts/EvermoreFile.sol",
  "abi": [
    {
      "inputs": [],
      "name": "getAllUsers",
      "outputs": [
        {
          "internalType": "address[]",
          "name": "",
          "type": "address[]"
        }
      ],
      "stateMutability": "view",
      "type": "function"
    },
    {
      "inputs": [
        {
          "internalType": "address",
          "name": "owner",
          "type": "address"
        }
      ],
      "name": "getFilesFor",
      "outputs": [
        {
          "components": [
            {
              "internalType": "string",
              "name": "path",
              "type": "string"
            },
            {
              "internalType": "string",
              "name": "hash",
              "type": "string"
            },
            {
              "internalType": "uint256",
              "name": "timestamp",
              "type": "uint256"
            },
            {
              "internalType": "string",
              "name": "hostname",
              "type": "string"
            },
            {
              "internalType": "uint256",
              "name": "file_size",
              "type": "uint256"
            },
            {
              "internalType": "string",
              "name": "content_type",
              "type": "string"
            }
          ],
          "internalType": "struct EvermoreFile.File[]",
          "name": "files",
          "type": "tuple[]"
        }
      ],
      "stateMutability": "view",
      "type": "function"
    },
    {
      "inputs": [],
      "name": "getUsers",
      "outputs": [
        {
          "internalType": "address[]",
          "name": "",
          "type": "address[]"
        }
      ],
      "stateMutability": "view",
      "type": "function"
    },
    {
      "inputs": [
        {
          "internalType": "address",
          "name": "user",
          "type": "address"
        }
      ],
      "name": "inUsers",
      "outputs": [
        {
          "internalType": "bool",
          "name": "found",
          "type": "bool"
        }
      ],
      "stateMutability": "view",
      "type": "function"
    },
    {
      "inputs": [
        {
          "internalType": "string",
          "name": "file_path",
          "type": "string"
        },
        {
          "internalType": "string",
          "name": "ipfsHash",
          "type": "string"
        },
        {
          "internalType": "uint256",
          "name": "timestamp",
          "type": "uint256"
        },
        {
          "internalType": "uint256",
          "name": "file_size",
          "type": "uint256"
        },
        {
          "internalType": "string",
          "name": "hostname",
          "type": "string"
        },
        {
          "internalType": "string",
          "name": "content_type",
          "type": "string"
        }
      ],
      "name": "set",
      "outputs": [],
      "stateMutability": "nonpayable",
      "type": "function"
    }
  ],
  "bytecode": "0x608060405234801561001057600080fd5b50610e80806100206000396000f3fe608060405234801561001057600080fd5b50600436106100565760003560e01c8062ce8e3e1461005b578063336d118e146100795780634050aae414610095578063e2842d79146100c5578063f04953f0146100e3575b600080fd5b610063610113565b6040516100709190610c31565b60405180910390f35b610093600480360381019061008e9190610945565b6101a1565b005b6100af60048036038101906100aa919061091c565b6102ed565b6040516100bc9190610c75565b60405180910390f35b6100cd610343565b6040516100da9190610c31565b60405180910390f35b6100fd60048036038101906100f8919061091c565b6103d1565b60405161010a9190610c53565b60405180910390f35b6060600180548060200260200160405190810160405280929190818152602001828054801561019757602002820191906000526020600020905b8160009054906101000a900473ffffffffffffffffffffffffffffffffffffffff1673ffffffffffffffffffffffffffffffffffffffff168152602001906001019080831161014d575b5050505050905090565b6101a96107cb565b6040518060c001604052808881526020018781526020018681526020018481526020018581526020018381525090506000803373ffffffffffffffffffffffffffffffffffffffff1673ffffffffffffffffffffffffffffffffffffffff168152602001908152602001600020600001819080600181540180825580915050600190039060005260206000209060060201600090919091909150600082015181600001908051906020019061025f929190610801565b50602082015181600101908051906020019061027c929190610801565b506040820151816002015560608201518160030190805190602001906102a3929190610801565b506080820151816004015560a08201518160050190805190602001906102ca929190610801565b5050506102d6336102ed565b6102e4576102e33361070d565b5b50505050505050565b6000600260008373ffffffffffffffffffffffffffffffffffffffff1673ffffffffffffffffffffffffffffffffffffffff16815260200190815260200160002060009054906101000a900460ff169050919050565b606060018054806020026020016040519081016040528092919081815260200182805480156103c757602002820191906000526020600020905b8160009054906101000a900473ffffffffffffffffffffffffffffffffffffffff1673ffffffffffffffffffffffffffffffffffffffff168152602001906001019080831161037d575b5050505050905090565b60606000808373ffffffffffffffffffffffffffffffffffffffff1673ffffffffffffffffffffffffffffffffffffffff168152602001908152602001600020600001805480602002602001604051908101604052809291908181526020016000905b8282101561070257838290600052602060002090600602016040518060c0016040529081600082018054600181600116156101000203166002900480601f0160208091040260200160405190810160405280929190818152602001828054600181600116156101000203166002900480156104f05780601f106104c5576101008083540402835291602001916104f0565b820191906000526020600020905b8154815290600101906020018083116104d357829003601f168201915b50505050508152602001600182018054600181600116156101000203166002900480601f0160208091040260200160405190810160405280929190818152602001828054600181600116156101000203166002900480156105925780601f1061056757610100808354040283529160200191610592565b820191906000526020600020905b81548152906001019060200180831161057557829003601f168201915b5050505050815260200160028201548152602001600382018054600181600116156101000203166002900480601f01602080910402602001604051908101604052809291908181526020018280546001816001161561010002031660029004801561063e5780601f106106135761010080835404028352916020019161063e565b820191906000526020600020905b81548152906001019060200180831161062157829003601f168201915b5050505050815260200160048201548152602001600582018054600181600116156101000203166002900480601f0160208091040260200160405190810160405280929190818152602001828054600181600116156101000203166002900480156106ea5780601f106106bf576101008083540402835291602001916106ea565b820191906000526020600020905b8154815290600101906020018083116106cd57829003601f168201915b50505050508152505081526020019060010190610434565b505050509050919050565b6001819080600181540180825580915050600190039060005260206000200160009091909190916101000a81548173ffffffffffffffffffffffffffffffffffffffff021916908373ffffffffffffffffffffffffffffffffffffffff1602179055506001600260008373ffffffffffffffffffffffffffffffffffffffff1673ffffffffffffffffffffffffffffffffffffffff16815260200190815260200160002060006101000a81548160ff02191690831515021790555050565b6040518060c001604052806060815260200160608152602001600081526020016060815260200160008152602001606081525090565b828054600181600116156101000203166002900490600052602060002090601f016020900481019282601f1061084257805160ff1916838001178555610870565b82800160010185558215610870579182015b8281111561086f578251825591602001919060010190610854565b5b50905061087d9190610881565b5090565b5b8082111561089a576000816000905550600101610882565b5090565b6000813590506108ad81610e1c565b92915050565b600082601f8301126108c457600080fd5b81356108d76108d282610cc1565b610c90565b915080825260208301602083018583830111156108f357600080fd5b6108fe838284610dc7565b50505092915050565b60008135905061091681610e33565b92915050565b60006020828403121561092e57600080fd5b600061093c8482850161089e565b91505092915050565b60008060008060008060c0878903121561095e57600080fd5b600087013567ffffffffffffffff81111561097857600080fd5b61098489828a016108b3565b965050602087013567ffffffffffffffff8111156109a157600080fd5b6109ad89828a016108b3565b95505060406109be89828a01610907565b94505060606109cf89828a01610907565b935050608087013567ffffffffffffffff8111156109ec57600080fd5b6109f889828a016108b3565b92505060a087013567ffffffffffffffff811115610a1557600080fd5b610a2189828a016108b3565b9150509295509295509295565b6000610a3a8383610a5a565b60208301905092915050565b6000610a528383610b84565b905092915050565b610a6381610d7f565b82525050565b6000610a7482610d11565b610a7e8185610d4c565b9350610a8983610cf1565b8060005b83811015610aba578151610aa18882610a2e565b9750610aac83610d32565b925050600181019050610a8d565b5085935050505092915050565b6000610ad282610d1c565b610adc8185610d5d565b935083602082028501610aee85610d01565b8060005b85811015610b2a5784840389528151610b0b8582610a46565b9450610b1683610d3f565b925060208a01995050600181019050610af2565b50829750879550505050505092915050565b610b4581610d91565b82525050565b6000610b5682610d27565b610b608185610d6e565b9350610b70818560208601610dd6565b610b7981610e0b565b840191505092915050565b600060c0830160008301518482036000860152610ba18282610b4b565b91505060208301518482036020860152610bbb8282610b4b565b9150506040830151610bd06040860182610c22565b5060608301518482036060860152610be88282610b4b565b9150506080830151610bfd6080860182610c22565b5060a083015184820360a0860152610c158282610b4b565b9150508091505092915050565b610c2b81610dbd565b82525050565b60006020820190508181036000830152610c4b8184610a69565b905092915050565b60006020820190508181036000830152610c6d8184610ac7565b905092915050565b6000602082019050610c8a6000830184610b3c565b92915050565b6000604051905081810181811067ffffffffffffffff82111715610cb757610cb6610e09565b5b8060405250919050565b600067ffffffffffffffff821115610cdc57610cdb610e09565b5b601f19601f8301169050602081019050919050565b6000819050602082019050919050565b6000819050602082019050919050565b600081519050919050565b600081519050919050565b600081519050919050565b6000602082019050919050565b6000602082019050919050565b600082825260208201905092915050565b600082825260208201905092915050565b600082825260208201905092915050565b6000610d8a82610d9d565b9050919050565b60008115159050919050565b600073ffffffffffffffffffffffffffffffffffffffff82169050919050565b6000819050919050565b82818337600083830152505050565b60005b83811015610df4578082015181840152602081019050610dd9565b83811115610e03576000848401525b50505050565bfe5b6000601f19601f8301169050919050565b610e2581610d7f565b8114610e3057600080fd5b50565b610e3c81610dbd565b8114610e4757600080fd5b5056fea26469706673582212203bee617c985c787f8731620ad0e14937d461eec95781db0a8ad01a6add2b3af064736f6c63430007030033",
  "linkReferences": {},
  "deployedLinkReferences": {}
}